{
  "address": "0xC3B294E27c1111430836E362ec14758fF5778aA6",
  "abi": [
    {
      "inputs": [
        {
          "internalType": "address",
          "name": "vrfCoordinator",
          "type": "address"
        },
        {
          "internalType": "uint64",
          "name": "subscriptionId",
          "type": "uint64"
        },
        {
          "internalType": "bytes32",
          "name": "keyHash",
          "type": "bytes32"
        },
        {
          "internalType": "uint32",
          "name": "callbackGasLimit",
          "type": "uint32"
        },
        {
          "internalType": "string[3]",
          "name": "tokenUris",
          "type": "string[3]"
        },
        {
          "internalType": "uint256",
          "name": "mintFee",
          "type": "uint256"
        }
      ],
      "stateMutability": "nonpayable",
      "type": "constructor"
    },
    {
      "inputs": [
        {
          "internalType": "address",
          "name": "have",
          "type": "address"
        },
        {
          "internalType": "address",
          "name": "want",
          "type": "address"
        }
      ],
      "name": "OnlyCoordinatorCanFulfill",
      "type": "error"
    },
    {
      "inputs": [],
      "name": "RandomIpfsNft__NeedMoreEthSent",
      "type": "error"
    },
    {
      "inputs": [],
      "name": "RandomIpfsNft__RangeOutOfBounds",
      "type": "error"
    },
    {
      "inputs": [],
      "name": "RandomIpfsNft__TransferFailed",
      "type": "error"
    },
    {
      "anonymous": false,
      "inputs": [
        {
          "indexed": true,
          "internalType": "address",
          "name": "owner",
          "type": "address"
        },
        {
          "indexed": true,
          "internalType": "address",
          "name": "approved",
          "type": "address"
        },
        {
          "indexed": true,
          "internalType": "uint256",
          "name": "tokenId",
          "type": "uint256"
        }
      ],
      "name": "Approval",
      "type": "event"
    },
    {
      "anonymous": false,
      "inputs": [
        {
          "indexed": true,
          "internalType": "address",
          "name": "owner",
          "type": "address"
        },
        {
          "indexed": true,
          "internalType": "address",
          "name": "operator",
          "type": "address"
        },
        {
          "indexed": false,
          "internalType": "bool",
          "name": "approved",
          "type": "bool"
        }
      ],
      "name": "ApprovalForAll",
      "type": "event"
    },
    {
      "anonymous": false,
      "inputs": [
        {
          "indexed": false,
          "internalType": "enum RandomIpfsNft.Breed",
          "name": "dogBreed",
          "type": "uint8"
        },
        {
          "indexed": false,
          "internalType": "address",
          "name": "minter",
          "type": "address"
        }
      ],
      "name": "NftMinted",
      "type": "event"
    },
    {
      "anonymous": false,
      "inputs": [
        {
          "indexed": true,
          "internalType": "uint256",
          "name": "requestId",
          "type": "uint256"
        },
        {
          "indexed": false,
          "internalType": "address",
          "name": "requester",
          "type": "address"
        }
      ],
      "name": "NftRequested",
      "type": "event"
    },
    {
      "anonymous": false,
      "inputs": [
        {
          "indexed": true,
          "internalType": "address",
          "name": "previousOwner",
          "type": "address"
        },
        {
          "indexed": true,
          "internalType": "address",
          "name": "newOwner",
          "type": "address"
        }
      ],
      "name": "OwnershipTransferred",
      "type": "event"
    },
    {
      "anonymous": false,
      "inputs": [
        {
          "indexed": true,
          "internalType": "address",
          "name": "from",
          "type": "address"
        },
        {
          "indexed": true,
          "internalType": "address",
          "name": "to",
          "type": "address"
        },
        {
          "indexed": true,
          "internalType": "uint256",
          "name": "tokenId",
          "type": "uint256"
        }
      ],
      "name": "Transfer",
      "type": "event"
    },
    {
      "inputs": [
        {
          "internalType": "address",
          "name": "to",
          "type": "address"
        },
        {
          "internalType": "uint256",
          "name": "tokenId",
          "type": "uint256"
        }
      ],
      "name": "approve",
      "outputs": [],
      "stateMutability": "nonpayable",
      "type": "function"
    },
    {
      "inputs": [
        {
          "internalType": "address",
          "name": "owner",
          "type": "address"
        }
      ],
      "name": "balanceOf",
      "outputs": [
        {
          "internalType": "uint256",
          "name": "",
          "type": "uint256"
        }
      ],
      "stateMutability": "view",
      "type": "function"
    },
    {
      "inputs": [
        {
          "internalType": "uint256",
          "name": "tokenId",
          "type": "uint256"
        }
      ],
      "name": "getApproved",
      "outputs": [
        {
          "internalType": "address",
          "name": "",
          "type": "address"
        }
      ],
      "stateMutability": "view",
      "type": "function"
    },
    {
      "inputs": [
        {
          "internalType": "uint256",
          "name": "modedRange",
          "type": "uint256"
        }
      ],
      "name": "getBreedFromModedRng",
      "outputs": [
        {
          "internalType": "enum RandomIpfsNft.Breed",
          "name": "",
          "type": "uint8"
        }
      ],
      "stateMutability": "pure",
      "type": "function"
    },
    {
      "inputs": [],
      "name": "getChanceArray",
      "outputs": [
        {
          "internalType": "uint256[3]",
          "name": "",
          "type": "uint256[3]"
        }
      ],
      "stateMutability": "pure",
      "type": "function"
    },
    {
      "inputs": [
        {
          "internalType": "uint256",
          "name": "index",
          "type": "uint256"
        }
      ],
      "name": "getDogTokenUris",
      "outputs": [
        {
          "internalType": "string",
          "name": "",
          "type": "string"
        }
      ],
      "stateMutability": "view",
      "type": "function"
    },
    {
      "inputs": [],
      "name": "getMintFee",
      "outputs": [
        {
          "internalType": "uint256",
          "name": "",
          "type": "uint256"
        }
      ],
      "stateMutability": "view",
      "type": "function"
    },
    {
      "inputs": [],
      "name": "getTokenCounter",
      "outputs": [
        {
          "internalType": "uint256",
          "name": "",
          "type": "uint256"
        }
      ],
      "stateMutability": "view",
      "type": "function"
    },
    {
      "inputs": [
        {
          "internalType": "address",
          "name": "owner",
          "type": "address"
        },
        {
          "internalType": "address",
          "name": "operator",
          "type": "address"
        }
      ],
      "name": "isApprovedForAll",
      "outputs": [
        {
          "internalType": "bool",
          "name": "",
          "type": "bool"
        }
      ],
      "stateMutability": "view",
      "type": "function"
    },
    {
      "inputs": [],
      "name": "name",
      "outputs": [
        {
          "internalType": "string",
          "name": "",
          "type": "string"
        }
      ],
      "stateMutability": "view",
      "type": "function"
    },
    {
      "inputs": [],
      "name": "owner",
      "outputs": [
        {
          "internalType": "address",
          "name": "",
          "type": "address"
        }
      ],
      "stateMutability": "view",
      "type": "function"
    },
    {
      "inputs": [
        {
          "internalType": "uint256",
          "name": "tokenId",
          "type": "uint256"
        }
      ],
      "name": "ownerOf",
      "outputs": [
        {
          "internalType": "address",
          "name": "",
          "type": "address"
        }
      ],
      "stateMutability": "view",
      "type": "function"
    },
    {
      "inputs": [
        {
          "internalType": "uint256",
          "name": "requestId",
          "type": "uint256"
        },
        {
          "internalType": "uint256[]",
          "name": "randomWords",
          "type": "uint256[]"
        }
      ],
      "name": "rawFulfillRandomWords",
      "outputs": [],
      "stateMutability": "nonpayable",
      "type": "function"
    },
    {
      "inputs": [],
      "name": "renounceOwnership",
      "outputs": [],
      "stateMutability": "nonpayable",
      "type": "function"
    },
    {
      "inputs": [],
      "name": "requestNft",
      "outputs": [
        {
          "internalType": "uint256",
          "name": "requestId",
          "type": "uint256"
        }
      ],
      "stateMutability": "payable",
      "type": "function"
    },
    {
      "inputs": [],
      "name": "s_tokenCounter",
      "outputs": [
        {
          "internalType": "uint256",
          "name": "",
          "type": "uint256"
        }
      ],
      "stateMutability": "view",
      "type": "function"
    },
    {
      "inputs": [
        {
          "internalType": "address",
          "name": "from",
          "type": "address"
        },
        {
          "internalType": "address",
          "name": "to",
          "type": "address"
        },
        {
          "internalType": "uint256",
          "name": "tokenId",
          "type": "uint256"
        }
      ],
      "name": "safeTransferFrom",
      "outputs": [],
      "stateMutability": "nonpayable",
      "type": "function"
    },
    {
      "inputs": [
        {
          "internalType": "address",
          "name": "from",
          "type": "address"
        },
        {
          "internalType": "address",
          "name": "to",
          "type": "address"
        },
        {
          "internalType": "uint256",
          "name": "tokenId",
          "type": "uint256"
        },
        {
          "internalType": "bytes",
          "name": "data",
          "type": "bytes"
        }
      ],
      "name": "safeTransferFrom",
      "outputs": [],
      "stateMutability": "nonpayable",
      "type": "function"
    },
    {
      "inputs": [
        {
          "internalType": "address",
          "name": "operator",
          "type": "address"
        },
        {
          "internalType": "bool",
          "name": "approved",
          "type": "bool"
        }
      ],
      "name": "setApprovalForAll",
      "outputs": [],
      "stateMutability": "nonpayable",
      "type": "function"
    },
    {
      "inputs": [
        {
          "internalType": "bytes4",
          "name": "interfaceId",
          "type": "bytes4"
        }
      ],
      "name": "supportsInterface",
      "outputs": [
        {
          "internalType": "bool",
          "name": "",
          "type": "bool"
        }
      ],
      "stateMutability": "view",
      "type": "function"
    },
    {
      "inputs": [],
      "name": "symbol",
      "outputs": [
        {
          "internalType": "string",
          "name": "",
          "type": "string"
        }
      ],
      "stateMutability": "view",
      "type": "function"
    },
    {
      "inputs": [
        {
          "internalType": "uint256",
          "name": "tokenId",
          "type": "uint256"
        }
      ],
      "name": "tokenURI",
      "outputs": [
        {
          "internalType": "string",
          "name": "",
          "type": "string"
        }
      ],
      "stateMutability": "view",
      "type": "function"
    },
    {
      "inputs": [
        {
          "internalType": "address",
          "name": "from",
          "type": "address"
        },
        {
          "internalType": "address",
          "name": "to",
          "type": "address"
        },
        {
          "internalType": "uint256",
          "name": "tokenId",
          "type": "uint256"
        }
      ],
      "name": "transferFrom",
      "outputs": [],
      "stateMutability": "nonpayable",
      "type": "function"
    },
    {
      "inputs": [
        {
          "internalType": "address",
          "name": "newOwner",
          "type": "address"
        }
      ],
      "name": "transferOwnership",
      "outputs": [],
      "stateMutability": "nonpayable",
      "type": "function"
    },
    {
      "inputs": [],
      "name": "withdraw",
      "outputs": [],
      "stateMutability": "nonpayable",
      "type": "function"
    }
  ],
  "transactionHash": "0x960ef36c30a1f8516bd1cb06467c64cea2c44679199af8b83a0d6f8d06b5117b",
  "args": [
    "0x7a1BaC17Ccc5b313516C5E16fb24f7659aA5ebed",
    "3683",
    "0x4b09e658ed251bcafeebbc69400383d49f344ace09b9576fe248bb02c003fe9f",
    "500000",
    [
      "ipfs://QmaVkBn2tKmjbhphU7eyztbvSQU5EXDdqRyXZtRhSGgJGo",
      "ipfs://QmYQC5aGZu2PTH8XzbJrbDnvhj3gVs7ya33H9mqUNvST3d",
      "ipfs://QmZYmH5iDbD6v3U2ixoVAjioSzvWJszDzYdbeCLquGSpVm"
    ],
    "10000000000000000"
  ],
  "numDeployments": 1,
  "solcInputHash": "007762003b3a9e38127c490e6baa9a65",
  "bytecode": "0x6101406040523480156200001257600080fd5b50604051620043a7380380620043a7833981810160405281019062000038919062000813565b6040518060400160405280600f81526020017f52616e646f6d2049706673204e667400000000000000000000000000000000008152506040518060400160405280600381526020017f52494e0000000000000000000000000000000000000000000000000000000000815250878073ffffffffffffffffffffffffffffffffffffffff1660808173ffffffffffffffffffffffffffffffffffffffff1660601b81525050508160009080519060200190620000f5929190620002a6565b5080600190805190602001906200010e929190620002a6565b5050506200013162000125620001d860201b60201c565b620001e060201b60201c565b8573ffffffffffffffffffffffffffffffffffffffff1660a08173ffffffffffffffffffffffffffffffffffffffff1660601b815250508467ffffffffffffffff1660c08167ffffffffffffffff1660c01b815250508360e081815250508263ffffffff166101008163ffffffff1660e01b8152505081600a906003620001ba92919062000337565b50806101208181525050600060098190555050505050505062000933565b600033905090565b6000600760009054906101000a900473ffffffffffffffffffffffffffffffffffffffff16905081600760006101000a81548173ffffffffffffffffffffffffffffffffffffffff021916908373ffffffffffffffffffffffffffffffffffffffff1602179055508173ffffffffffffffffffffffffffffffffffffffff168173ffffffffffffffffffffffffffffffffffffffff167f8be0079c531659141344cd1fd0a4f28419497f9722a3daafe3b4186f6b6457e060405160405180910390a35050565b828054620002b490620008fd565b90600052602060002090601f016020900481019282620002d8576000855562000324565b82601f10620002f357805160ff191683800117855562000324565b8280016001018555821562000324579182015b828111156200032357825182559160200191906001019062000306565b5b5090506200033391906200039e565b5090565b8280548282559060005260206000209081019282156200038b579160200282015b828111156200038a57825182908051906020019062000379929190620002a6565b509160200191906001019062000358565b5b5090506200039a9190620003bd565b5090565b5b80821115620003b95760008160009055506001016200039f565b5090565b5b80821115620003e15760008181620003d79190620003e5565b50600101620003be565b5090565b508054620003f390620008fd565b6000825580601f1062000407575062000428565b601f0160209004906000526020600020908101906200042791906200039e565b5b50565b6000604051905090565b600080fd5b600080fd5b600073ffffffffffffffffffffffffffffffffffffffff82169050919050565b60006200046c826200043f565b9050919050565b6200047e816200045f565b81146200048a57600080fd5b50565b6000815190506200049e8162000473565b92915050565b600067ffffffffffffffff82169050919050565b620004c381620004a4565b8114620004cf57600080fd5b50565b600081519050620004e381620004b8565b92915050565b6000819050919050565b620004fe81620004e9565b81146200050a57600080fd5b50565b6000815190506200051e81620004f3565b92915050565b600063ffffffff82169050919050565b6200053f8162000524565b81146200054b57600080fd5b50565b6000815190506200055f8162000534565b92915050565b600080fd5b6000601f19601f8301169050919050565b7f4e487b7100000000000000000000000000000000000000000000000000000000600052604160045260246000fd5b620005b5826200056a565b810181811067ffffffffffffffff82111715620005d757620005d66200057b565b5b80604052505050565b6000620005ec6200042b565b9050620005fa8282620005aa565b919050565b600067ffffffffffffffff8211156200061d576200061c6200057b565b5b602082029050919050565b600080fd5b600080fd5b600067ffffffffffffffff82111562000650576200064f6200057b565b5b6200065b826200056a565b9050602081019050919050565b60005b83811015620006885780820151818401526020810190506200066b565b8381111562000698576000848401525b50505050565b6000620006b5620006af8462000632565b620005e0565b905082815260208101848484011115620006d457620006d36200062d565b5b620006e184828562000668565b509392505050565b600082601f83011262000701576200070062000565565b5b8151620007138482602086016200069e565b91505092915050565b6000620007336200072d84620005ff565b620005e0565b9050806020840283018581111562000750576200074f62000628565b5b835b818110156200079e57805167ffffffffffffffff81111562000779576200077862000565565b5b808601620007888982620006e9565b8552602085019450505060208101905062000752565b5050509392505050565b600082601f830112620007c057620007bf62000565565b5b6003620007cf8482856200071c565b91505092915050565b6000819050919050565b620007ed81620007d8565b8114620007f957600080fd5b50565b6000815190506200080d81620007e2565b92915050565b60008060008060008060c0878903121562000833576200083262000435565b5b60006200084389828a016200048d565b96505060206200085689828a01620004d2565b95505060406200086989828a016200050d565b94505060606200087c89828a016200054e565b935050608087015167ffffffffffffffff811115620008a0576200089f6200043a565b5b620008ae89828a01620007a8565b92505060a0620008c189828a01620007fc565b9150509295509295509295565b7f4e487b7100000000000000000000000000000000000000000000000000000000600052602260045260246000fd5b600060028204905060018216806200091657607f821691505b602082108114156200092d576200092c620008ce565b5b50919050565b60805160601c60a05160601c60c05160c01c60e0516101005160e01c61012051613a0a6200099d60003960008181610dbe0152610eb801526000610f9201526000610f4e01526000610f6f01526000610f120152600081816108c501526109190152613a0a6000f3fe6080604052600436106101665760003560e01c80636e02007d116100d157806395d89b411161008a578063b88d4fde11610064578063b88d4fde1461051f578063c87b56dd14610548578063e985e9c514610585578063f2fde38b146105c257610166565b806395d89b41146104ad578063a22cb465146104d8578063aa1524911461050157610166565b80636e02007d1461039b5780636f9bb541146103c657806370a0823114610403578063715018a6146104405780637a5caab3146104575780638da5cb5b1461048257610166565b806323b872dd1161012357806323b872dd1461028d5780633af25975146102b65780633ccfd60b146102f357806342842e0e1461030a5780635dacf5f4146103335780636352211e1461035e57610166565b806301ffc9a71461016b57806306fdde03146101a8578063081812fc146101d3578063095ea7b3146102105780630b21a83b146102395780631fe543e314610264575b600080fd5b34801561017757600080fd5b50610192600480360381019061018d919061261d565b6105eb565b60405161019f9190612665565b60405180910390f35b3480156101b457600080fd5b506101bd6106cd565b6040516101ca9190612719565b60405180910390f35b3480156101df57600080fd5b506101fa60048036038101906101f59190612771565b61075f565b60405161020791906127df565b60405180910390f35b34801561021c57600080fd5b5061023760048036038101906102329190612826565b6107a5565b005b34801561024557600080fd5b5061024e6108bd565b60405161025b9190612875565b60405180910390f35b34801561027057600080fd5b5061028b600480360381019061028691906129d8565b6108c3565b005b34801561029957600080fd5b506102b460048036038101906102af9190612a34565b610983565b005b3480156102c257600080fd5b506102dd60048036038101906102d89190612771565b6109e3565b6040516102ea9190612719565b60405180910390f35b3480156102ff57600080fd5b50610308610a93565b005b34801561031657600080fd5b50610331600480360381019061032c9190612a34565b610b47565b005b34801561033f57600080fd5b50610348610b67565b6040516103559190612b32565b60405180910390f35b34801561036a57600080fd5b5061038560048036038101906103809190612771565b610b92565b60405161039291906127df565b60405180910390f35b3480156103a757600080fd5b506103b0610c19565b6040516103bd9190612875565b60405180910390f35b3480156103d257600080fd5b506103ed60048036038101906103e89190612771565b610c23565b6040516103fa9190612bc4565b60405180910390f35b34801561040f57600080fd5b5061042a60048036038101906104259190612bdf565b610cee565b6040516104379190612875565b60405180910390f35b34801561044c57600080fd5b50610455610da6565b005b34801561046357600080fd5b5061046c610dba565b6040516104799190612875565b60405180910390f35b34801561048e57600080fd5b50610497610de2565b6040516104a491906127df565b60405180910390f35b3480156104b957600080fd5b506104c2610e0c565b6040516104cf9190612719565b60405180910390f35b3480156104e457600080fd5b506104ff60048036038101906104fa9190612c38565b610e9e565b005b610509610eb4565b6040516105169190612875565b60405180910390f35b34801561052b57600080fd5b5061054660048036038101906105419190612d2d565b6110b4565b005b34801561055457600080fd5b5061056f600480360381019061056a9190612771565b611116565b60405161057c9190612719565b60405180910390f35b34801561059157600080fd5b506105ac60048036038101906105a79190612db0565b611229565b6040516105b99190612665565b60405180910390f35b3480156105ce57600080fd5b506105e960048036038101906105e49190612bdf565b6112bd565b005b60007f80ac58cd000000000000000000000000000000000000000000000000000000007bffffffffffffffffffffffffffffffffffffffffffffffffffffffff1916827bffffffffffffffffffffffffffffffffffffffffffffffffffffffff191614806106b657507f5b5e139f000000000000000000000000000000000000000000000000000000007bffffffffffffffffffffffffffffffffffffffffffffffffffffffff1916827bffffffffffffffffffffffffffffffffffffffffffffffffffffffff1916145b806106c657506106c582611341565b5b9050919050565b6060600080546106dc90612e1f565b80601f016020809104026020016040519081016040528092919081815260200182805461070890612e1f565b80156107555780601f1061072a57610100808354040283529160200191610755565b820191906000526020600020905b81548152906001019060200180831161073857829003601f168201915b5050505050905090565b600061076a826113ab565b6004600083815260200190815260200160002060009054906101000a900473ffffffffffffffffffffffffffffffffffffffff169050919050565b60006107b082610b92565b90508073ffffffffffffffffffffffffffffffffffffffff168373ffffffffffffffffffffffffffffffffffffffff161415610821576040517f08c379a000000000000000000000000000000000000000000000000000000000815260040161081890612ec3565b60405180910390fd5b8073ffffffffffffffffffffffffffffffffffffffff166108406113f6565b73ffffffffffffffffffffffffffffffffffffffff16148061086f575061086e816108696113f6565b611229565b5b6108ae576040517f08c379a00000000000000000000000000000000000000000000000000000000081526004016108a590612f55565b60405180910390fd5b6108b883836113fe565b505050565b60095481565b7f000000000000000000000000000000000000000000000000000000000000000073ffffffffffffffffffffffffffffffffffffffff163373ffffffffffffffffffffffffffffffffffffffff161461097557337f00000000000000000000000000000000000000000000000000000000000000006040517f1cf993f400000000000000000000000000000000000000000000000000000000815260040161096c929190612f75565b60405180910390fd5b61097f82826114b7565b5050565b61099461098e6113f6565b82611657565b6109d3576040517f08c379a00000000000000000000000000000000000000000000000000000000081526004016109ca90613010565b60405180910390fd5b6109de8383836116ec565b505050565b6060600a82815481106109f9576109f8613030565b5b906000526020600020018054610a0e90612e1f565b80601f0160208091040260200160405190810160405280929190818152602001828054610a3a90612e1f565b8015610a875780601f10610a5c57610100808354040283529160200191610a87565b820191906000526020600020905b815481529060010190602001808311610a6a57829003601f168201915b50505050509050919050565b610a9b6119e6565b600047905060003373ffffffffffffffffffffffffffffffffffffffff1682604051610ac690613090565b60006040518083038185875af1925050503d8060008114610b03576040519150601f19603f3d011682016040523d82523d6000602084013e610b08565b606091505b5050905080610b43576040517fca7e25b700000000000000000000000000000000000000000000000000000000815260040160405180910390fd5b5050565b610b62838383604051806020016040528060008152506110b4565b505050565b610b6f6124ec565b6040518060600160405280600a8152602001602881526020016064815250905090565b600080610b9e83611a64565b9050600073ffffffffffffffffffffffffffffffffffffffff168173ffffffffffffffffffffffffffffffffffffffff161415610c10576040517f08c379a0000000000000000000000000000000000000000000000000000000008152600401610c07906130f1565b60405180910390fd5b80915050919050565b6000600954905090565b600080600090506000610c34610b67565b905060005b6003811015610cb6578285118015610c675750818160038110610c5f57610c5e613030565b5b602002015185105b15610c8957806002811115610c7f57610c7e612b4d565b5b9350505050610ce9565b818160038110610c9c57610c9b613030565b5b602002015192508080610cae90613140565b915050610c39565b506040517f12806c9d00000000000000000000000000000000000000000000000000000000815260040160405180910390fd5b919050565b60008073ffffffffffffffffffffffffffffffffffffffff168273ffffffffffffffffffffffffffffffffffffffff161415610d5f576040517f08c379a0000000000000000000000000000000000000000000000000000000008152600401610d56906131fb565b60405180910390fd5b600360008373ffffffffffffffffffffffffffffffffffffffff1673ffffffffffffffffffffffffffffffffffffffff168152602001908152602001600020549050919050565b610dae6119e6565b610db86000611aa1565b565b60007f0000000000000000000000000000000000000000000000000000000000000000905090565b6000600760009054906101000a900473ffffffffffffffffffffffffffffffffffffffff16905090565b606060018054610e1b90612e1f565b80601f0160208091040260200160405190810160405280929190818152602001828054610e4790612e1f565b8015610e945780601f10610e6957610100808354040283529160200191610e94565b820191906000526020600020905b815481529060010190602001808311610e7757829003601f168201915b5050505050905090565b610eb0610ea96113f6565b8383611b67565b5050565b60007f0000000000000000000000000000000000000000000000000000000000000000341015610f10576040517ff64fbfee00000000000000000000000000000000000000000000000000000000815260040160405180910390fd5b7f000000000000000000000000000000000000000000000000000000000000000073ffffffffffffffffffffffffffffffffffffffff16635d3b1d307f00000000000000000000000000000000000000000000000000000000000000007f000000000000000000000000000000000000000000000000000000000000000060037f000000000000000000000000000000000000000000000000000000000000000060016040518663ffffffff1660e01b8152600401610fd3959493929190613293565b602060405180830381600087803b158015610fed57600080fd5b505af1158015611001573d6000803e3d6000fd5b505050506040513d601f19601f8201168201806040525081019061102591906132fb565b9050336008600083815260200190815260200160002060006101000a81548173ffffffffffffffffffffffffffffffffffffffff021916908373ffffffffffffffffffffffffffffffffffffffff160217905550807ff873236e6cc0ecc5be1a9a35c95ee5b8d1ac4cc7bfef0cc5060391d6cc98e26b336040516110a991906127df565b60405180910390a290565b6110c56110bf6113f6565b83611657565b611104576040517f08c379a00000000000000000000000000000000000000000000000000000000081526004016110fb90613010565b60405180910390fd5b61111084848484611cd4565b50505050565b6060611121826113ab565b600060066000848152602001908152602001600020805461114190612e1f565b80601f016020809104026020016040519081016040528092919081815260200182805461116d90612e1f565b80156111ba5780601f1061118f576101008083540402835291602001916111ba565b820191906000526020600020905b81548152906001019060200180831161119d57829003601f168201915b5050505050905060006111cb611d30565b90506000815114156111e1578192505050611224565b6000825111156112165780826040516020016111fe929190613364565b60405160208183030381529060405292505050611224565b61121f84611d47565b925050505b919050565b6000600560008473ffffffffffffffffffffffffffffffffffffffff1673ffffffffffffffffffffffffffffffffffffffff16815260200190815260200160002060008373ffffffffffffffffffffffffffffffffffffffff1673ffffffffffffffffffffffffffffffffffffffff16815260200190815260200160002060009054906101000a900460ff16905092915050565b6112c56119e6565b600073ffffffffffffffffffffffffffffffffffffffff168173ffffffffffffffffffffffffffffffffffffffff161415611335576040517f08c379a000000000000000000000000000000000000000000000000000000000815260040161132c906133fa565b60405180910390fd5b61133e81611aa1565b50565b60007f01ffc9a7000000000000000000000000000000000000000000000000000000007bffffffffffffffffffffffffffffffffffffffffffffffffffffffff1916827bffffffffffffffffffffffffffffffffffffffffffffffffffffffff1916149050919050565b6113b481611daf565b6113f3576040517f08c379a00000000000000000000000000000000000000000000000000000000081526004016113ea906130f1565b60405180910390fd5b50565b600033905090565b816004600083815260200190815260200160002060006101000a81548173ffffffffffffffffffffffffffffffffffffffff021916908373ffffffffffffffffffffffffffffffffffffffff160217905550808273ffffffffffffffffffffffffffffffffffffffff1661147183610b92565b73ffffffffffffffffffffffffffffffffffffffff167f8c5be1e5ebec7d5bd14f71427d1e84f3dd0314c0f7b2291e5b200ac8c7c3b92560405160405180910390a45050565b60006008600084815260200190815260200160002060009054906101000a900473ffffffffffffffffffffffffffffffffffffffff16905060006009549050600060648460008151811061150e5761150d613030565b5b60200260200101516115209190613449565b9050600061152d82610c23565b905060095460096000828254611543919061347a565b925050819055506115548484611df0565b61161683600a83600281111561156d5761156c612b4d565b5b8154811061157e5761157d613030565b5b90600052602060002001805461159390612e1f565b80601f01602080910402602001604051908101604052809291908181526020018280546115bf90612e1f565b801561160c5780601f106115e15761010080835404028352916020019161160c565b820191906000526020600020905b8154815290600101906020018083116115ef57829003601f168201915b5050505050611e0e565b7f8a269f26b688e110e9cbd887d163dab35cae678fa353a0292de532c0cac1ecdc81856040516116479291906134d0565b60405180910390a1505050505050565b60008061166383610b92565b90508073ffffffffffffffffffffffffffffffffffffffff168473ffffffffffffffffffffffffffffffffffffffff1614806116a557506116a48185611229565b5b806116e357508373ffffffffffffffffffffffffffffffffffffffff166116cb8461075f565b73ffffffffffffffffffffffffffffffffffffffff16145b91505092915050565b8273ffffffffffffffffffffffffffffffffffffffff1661170c82610b92565b73ffffffffffffffffffffffffffffffffffffffff1614611762576040517f08c379a00000000000000000000000000000000000000000000000000000000081526004016117599061356b565b60405180910390fd5b600073ffffffffffffffffffffffffffffffffffffffff168273ffffffffffffffffffffffffffffffffffffffff1614156117d2576040517f08c379a00000000000000000000000000000000000000000000000000000000081526004016117c9906135fd565b60405180910390fd5b6117df8383836001611e82565b8273ffffffffffffffffffffffffffffffffffffffff166117ff82610b92565b73ffffffffffffffffffffffffffffffffffffffff1614611855576040517f08c379a000000000000000000000000000000000000000000000000000000000815260040161184c9061356b565b60405180910390fd5b6004600082815260200190815260200160002060006101000a81549073ffffffffffffffffffffffffffffffffffffffff02191690556001600360008573ffffffffffffffffffffffffffffffffffffffff1673ffffffffffffffffffffffffffffffffffffffff168152602001908152602001600020600082825403925050819055506001600360008473ffffffffffffffffffffffffffffffffffffffff1673ffffffffffffffffffffffffffffffffffffffff16815260200190815260200160002060008282540192505081905550816002600083815260200190815260200160002060006101000a81548173ffffffffffffffffffffffffffffffffffffffff021916908373ffffffffffffffffffffffffffffffffffffffff160217905550808273ffffffffffffffffffffffffffffffffffffffff168473ffffffffffffffffffffffffffffffffffffffff167fddf252ad1be2c89b69c2b068fc378daa952ba7f163c4a11628f55a4df523b3ef60405160405180910390a46119e18383836001611e88565b505050565b6119ee6113f6565b73ffffffffffffffffffffffffffffffffffffffff16611a0c610de2565b73ffffffffffffffffffffffffffffffffffffffff1614611a62576040517f08c379a0000000000000000000000000000000000000000000000000000000008152600401611a5990613669565b60405180910390fd5b565b60006002600083815260200190815260200160002060009054906101000a900473ffffffffffffffffffffffffffffffffffffffff169050919050565b6000600760009054906101000a900473ffffffffffffffffffffffffffffffffffffffff16905081600760006101000a81548173ffffffffffffffffffffffffffffffffffffffff021916908373ffffffffffffffffffffffffffffffffffffffff1602179055508173ffffffffffffffffffffffffffffffffffffffff168173ffffffffffffffffffffffffffffffffffffffff167f8be0079c531659141344cd1fd0a4f28419497f9722a3daafe3b4186f6b6457e060405160405180910390a35050565b8173ffffffffffffffffffffffffffffffffffffffff168373ffffffffffffffffffffffffffffffffffffffff161415611bd6576040517f08c379a0000000000000000000000000000000000000000000000000000000008152600401611bcd906136d5565b60405180910390fd5b80600560008573ffffffffffffffffffffffffffffffffffffffff1673ffffffffffffffffffffffffffffffffffffffff16815260200190815260200160002060008473ffffffffffffffffffffffffffffffffffffffff1673ffffffffffffffffffffffffffffffffffffffff16815260200190815260200160002060006101000a81548160ff0219169083151502179055508173ffffffffffffffffffffffffffffffffffffffff168373ffffffffffffffffffffffffffffffffffffffff167f17307eab39ab6107e8899845ad3d59bd9653f200f220920489ca2b5937696c3183604051611cc79190612665565b60405180910390a3505050565b611cdf8484846116ec565b611ceb84848484611e8e565b611d2a576040517f08c379a0000000000000000000000000000000000000000000000000000000008152600401611d2190613767565b60405180910390fd5b50505050565b606060405180602001604052806000815250905090565b6060611d52826113ab565b6000611d5c611d30565b90506000815111611d7c5760405180602001604052806000815250611da7565b80611d8684612025565b604051602001611d97929190613364565b6040516020818303038152906040525b915050919050565b60008073ffffffffffffffffffffffffffffffffffffffff16611dd183611a64565b73ffffffffffffffffffffffffffffffffffffffff1614159050919050565b611e0a8282604051806020016040528060008152506120fd565b5050565b611e1782611daf565b611e56576040517f08c379a0000000000000000000000000000000000000000000000000000000008152600401611e4d906137f9565b60405180910390fd5b80600660008481526020019081526020016000209080519060200190611e7d92919061250e565b505050565b50505050565b50505050565b6000611eaf8473ffffffffffffffffffffffffffffffffffffffff16612158565b15612018578373ffffffffffffffffffffffffffffffffffffffff1663150b7a02611ed86113f6565b8786866040518563ffffffff1660e01b8152600401611efa949392919061386e565b602060405180830381600087803b158015611f1457600080fd5b505af1925050508015611f4557506040513d601f19601f82011682018060405250810190611f4291906138cf565b60015b611fc8573d8060008114611f75576040519150601f19603f3d011682016040523d82523d6000602084013e611f7a565b606091505b50600081511415611fc0576040517f08c379a0000000000000000000000000000000000000000000000000000000008152600401611fb790613767565b60405180910390fd5b805181602001fd5b63150b7a0260e01b7bffffffffffffffffffffffffffffffffffffffffffffffffffffffff1916817bffffffffffffffffffffffffffffffffffffffffffffffffffffffff19161491505061201d565b600190505b949350505050565b6060600060016120348461217b565b01905060008167ffffffffffffffff81111561205357612052612895565b5b6040519080825280601f01601f1916602001820160405280156120855781602001600182028036833780820191505090505b509050600082602001820190505b6001156120f2578080600190039150507f3031323334353637383961626364656600000000000000000000000000000000600a86061a8153600a85816120dc576120db61341a565b5b04945060008514156120ed576120f2565b612093565b819350505050919050565b61210783836122ce565b6121146000848484611e8e565b612153576040517f08c379a000000000000000000000000000000000000000000000000000000000815260040161214a90613767565b60405180910390fd5b505050565b6000808273ffffffffffffffffffffffffffffffffffffffff163b119050919050565b600080600090507a184f03e93ff9f4daa797ed6e38ed64bf6a1f01000000000000000083106121d9577a184f03e93ff9f4daa797ed6e38ed64bf6a1f01000000000000000083816121cf576121ce61341a565b5b0492506040810190505b6d04ee2d6d415b85acef81000000008310612216576d04ee2d6d415b85acef8100000000838161220c5761220b61341a565b5b0492506020810190505b662386f26fc10000831061224557662386f26fc10000838161223b5761223a61341a565b5b0492506010810190505b6305f5e100831061226e576305f5e10083816122645761226361341a565b5b0492506008810190505b61271083106122935761271083816122895761228861341a565b5b0492506004810190505b606483106122b657606483816122ac576122ab61341a565b5b0492506002810190505b600a83106122c5576001810190505b80915050919050565b600073ffffffffffffffffffffffffffffffffffffffff168273ffffffffffffffffffffffffffffffffffffffff16141561233e576040517f08c379a000000000000000000000000000000000000000000000000000000000815260040161233590613948565b60405180910390fd5b61234781611daf565b15612387576040517f08c379a000000000000000000000000000000000000000000000000000000000815260040161237e906139b4565b60405180910390fd5b612395600083836001611e82565b61239e81611daf565b156123de576040517f08c379a00000000000000000000000000000000000000000000000000000000081526004016123d5906139b4565b60405180910390fd5b6001600360008473ffffffffffffffffffffffffffffffffffffffff1673ffffffffffffffffffffffffffffffffffffffff16815260200190815260200160002060008282540192505081905550816002600083815260200190815260200160002060006101000a81548173ffffffffffffffffffffffffffffffffffffffff021916908373ffffffffffffffffffffffffffffffffffffffff160217905550808273ffffffffffffffffffffffffffffffffffffffff16600073ffffffffffffffffffffffffffffffffffffffff167fddf252ad1be2c89b69c2b068fc378daa952ba7f163c4a11628f55a4df523b3ef60405160405180910390a46124e8600083836001611e88565b5050565b6040518060600160405280600390602082028036833780820191505090505090565b82805461251a90612e1f565b90600052602060002090601f01602090048101928261253c5760008555612583565b82601f1061255557805160ff1916838001178555612583565b82800160010185558215612583579182015b82811115612582578251825591602001919060010190612567565b5b5090506125909190612594565b5090565b5b808211156125ad576000816000905550600101612595565b5090565b6000604051905090565b600080fd5b600080fd5b60007fffffffff0000000000000000000000000000000000000000000000000000000082169050919050565b6125fa816125c5565b811461260557600080fd5b50565b600081359050612617816125f1565b92915050565b600060208284031215612633576126326125bb565b5b600061264184828501612608565b91505092915050565b60008115159050919050565b61265f8161264a565b82525050565b600060208201905061267a6000830184612656565b92915050565b600081519050919050565b600082825260208201905092915050565b60005b838110156126ba57808201518184015260208101905061269f565b838111156126c9576000848401525b50505050565b6000601f19601f8301169050919050565b60006126eb82612680565b6126f5818561268b565b935061270581856020860161269c565b61270e816126cf565b840191505092915050565b6000602082019050818103600083015261273381846126e0565b905092915050565b6000819050919050565b61274e8161273b565b811461275957600080fd5b50565b60008135905061276b81612745565b92915050565b600060208284031215612787576127866125bb565b5b60006127958482850161275c565b91505092915050565b600073ffffffffffffffffffffffffffffffffffffffff82169050919050565b60006127c98261279e565b9050919050565b6127d9816127be565b82525050565b60006020820190506127f460008301846127d0565b92915050565b612803816127be565b811461280e57600080fd5b50565b600081359050612820816127fa565b92915050565b6000806040838503121561283d5761283c6125bb565b5b600061284b85828601612811565b925050602061285c8582860161275c565b9150509250929050565b61286f8161273b565b82525050565b600060208201905061288a6000830184612866565b92915050565b600080fd5b7f4e487b7100000000000000000000000000000000000000000000000000000000600052604160045260246000fd5b6128cd826126cf565b810181811067ffffffffffffffff821117156128ec576128eb612895565b5b80604052505050565b60006128ff6125b1565b905061290b82826128c4565b919050565b600067ffffffffffffffff82111561292b5761292a612895565b5b602082029050602081019050919050565b600080fd5b600061295461294f84612910565b6128f5565b905080838252602082019050602084028301858111156129775761297661293c565b5b835b818110156129a0578061298c888261275c565b845260208401935050602081019050612979565b5050509392505050565b600082601f8301126129bf576129be612890565b5b81356129cf848260208601612941565b91505092915050565b600080604083850312156129ef576129ee6125bb565b5b60006129fd8582860161275c565b925050602083013567ffffffffffffffff811115612a1e57612a1d6125c0565b5b612a2a858286016129aa565b9150509250929050565b600080600060608486031215612a4d57612a4c6125bb565b5b6000612a5b86828701612811565b9350506020612a6c86828701612811565b9250506040612a7d8682870161275c565b9150509250925092565b600060039050919050565b600081905092915050565b6000819050919050565b612ab08161273b565b82525050565b6000612ac28383612aa7565b60208301905092915050565b6000602082019050919050565b612ae481612a87565b612aee8184612a92565b9250612af982612a9d565b8060005b83811015612b2a578151612b118782612ab6565b9650612b1c83612ace565b925050600181019050612afd565b505050505050565b6000606082019050612b476000830184612adb565b92915050565b7f4e487b7100000000000000000000000000000000000000000000000000000000600052602160045260246000fd5b60038110612b8d57612b8c612b4d565b5b50565b6000819050612b9e82612b7c565b919050565b6000612bae82612b90565b9050919050565b612bbe81612ba3565b82525050565b6000602082019050612bd96000830184612bb5565b92915050565b600060208284031215612bf557612bf46125bb565b5b6000612c0384828501612811565b91505092915050565b612c158161264a565b8114612c2057600080fd5b50565b600081359050612c3281612c0c565b92915050565b60008060408385031215612c4f57612c4e6125bb565b5b6000612c5d85828601612811565b9250506020612c6e85828601612c23565b9150509250929050565b600080fd5b600067ffffffffffffffff821115612c9857612c97612895565b5b612ca1826126cf565b9050602081019050919050565b82818337600083830152505050565b6000612cd0612ccb84612c7d565b6128f5565b905082815260208101848484011115612cec57612ceb612c78565b5b612cf7848285612cae565b509392505050565b600082601f830112612d1457612d13612890565b5b8135612d24848260208601612cbd565b91505092915050565b60008060008060808587031215612d4757612d466125bb565b5b6000612d5587828801612811565b9450506020612d6687828801612811565b9350506040612d778782880161275c565b925050606085013567ffffffffffffffff811115612d9857612d976125c0565b5b612da487828801612cff565b91505092959194509250565b60008060408385031215612dc757612dc66125bb565b5b6000612dd585828601612811565b9250506020612de685828601612811565b9150509250929050565b7f4e487b7100000000000000000000000000000000000000000000000000000000600052602260045260246000fd5b60006002820490506001821680612e3757607f821691505b60208210811415612e4b57612e4a612df0565b5b50919050565b7f4552433732313a20617070726f76616c20746f2063757272656e74206f776e6560008201527f7200000000000000000000000000000000000000000000000000000000000000602082015250565b6000612ead60218361268b565b9150612eb882612e51565b604082019050919050565b60006020820190508181036000830152612edc81612ea0565b9050919050565b7f4552433732313a20617070726f76652063616c6c6572206973206e6f7420746f60008201527f6b656e206f776e6572206f7220617070726f76656420666f7220616c6c000000602082015250565b6000612f3f603d8361268b565b9150612f4a82612ee3565b604082019050919050565b60006020820190508181036000830152612f6e81612f32565b9050919050565b6000604082019050612f8a60008301856127d0565b612f9760208301846127d0565b9392505050565b7f4552433732313a2063616c6c6572206973206e6f7420746f6b656e206f776e6560008201527f72206f7220617070726f76656400000000000000000000000000000000000000602082015250565b6000612ffa602d8361268b565b915061300582612f9e565b604082019050919050565b6000602082019050818103600083015261302981612fed565b9050919050565b7f4e487b7100000000000000000000000000000000000000000000000000000000600052603260045260246000fd5b600081905092915050565b50565b600061307a60008361305f565b91506130858261306a565b600082019050919050565b600061309b8261306d565b9150819050919050565b7f4552433732313a20696e76616c696420746f6b656e2049440000000000000000600082015250565b60006130db60188361268b565b91506130e6826130a5565b602082019050919050565b6000602082019050818103600083015261310a816130ce565b9050919050565b7f4e487b7100000000000000000000000000000000000000000000000000000000600052601160045260246000fd5b600061314b8261273b565b91507fffffffffffffffffffffffffffffffffffffffffffffffffffffffffffffffff82141561317e5761317d613111565b5b600182019050919050565b7f4552433732313a2061646472657373207a65726f206973206e6f74206120766160008201527f6c6964206f776e65720000000000000000000000000000000000000000000000602082015250565b60006131e560298361268b565b91506131f082613189565b604082019050919050565b60006020820190508181036000830152613214816131d8565b9050919050565b6000819050919050565b61322e8161321b565b82525050565b600067ffffffffffffffff82169050919050565b61325181613234565b82525050565b600061ffff82169050919050565b61326e81613257565b82525050565b600063ffffffff82169050919050565b61328d81613274565b82525050565b600060a0820190506132a86000830188613225565b6132b56020830187613248565b6132c26040830186613265565b6132cf6060830185613284565b6132dc6080830184613284565b9695505050505050565b6000815190506132f581612745565b92915050565b600060208284031215613311576133106125bb565b5b600061331f848285016132e6565b91505092915050565b600081905092915050565b600061333e82612680565b6133488185613328565b935061335881856020860161269c565b80840191505092915050565b60006133708285613333565b915061337c8284613333565b91508190509392505050565b7f4f776e61626c653a206e6577206f776e657220697320746865207a65726f206160008201527f6464726573730000000000000000000000000000000000000000000000000000602082015250565b60006133e460268361268b565b91506133ef82613388565b604082019050919050565b60006020820190508181036000830152613413816133d7565b9050919050565b7f4e487b7100000000000000000000000000000000000000000000000000000000600052601260045260246000fd5b60006134548261273b565b915061345f8361273b565b92508261346f5761346e61341a565b5b828206905092915050565b60006134858261273b565b91506134908361273b565b9250827fffffffffffffffffffffffffffffffffffffffffffffffffffffffffffffffff038211156134c5576134c4613111565b5b828201905092915050565b60006040820190506134e56000830185612bb5565b6134f260208301846127d0565b9392505050565b7f4552433732313a207472616e736665722066726f6d20696e636f72726563742060008201527f6f776e6572000000000000000000000000000000000000000000000000000000602082015250565b600061355560258361268b565b9150613560826134f9565b604082019050919050565b6000602082019050818103600083015261358481613548565b9050919050565b7f4552433732313a207472616e7366657220746f20746865207a65726f2061646460008201527f7265737300000000000000000000000000000000000000000000000000000000602082015250565b60006135e760248361268b565b91506135f28261358b565b604082019050919050565b60006020820190508181036000830152613616816135da565b9050919050565b7f4f776e61626c653a2063616c6c6572206973206e6f7420746865206f776e6572600082015250565b600061365360208361268b565b915061365e8261361d565b602082019050919050565b6000602082019050818103600083015261368281613646565b9050919050565b7f4552433732313a20617070726f766520746f2063616c6c657200000000000000600082015250565b60006136bf60198361268b565b91506136ca82613689565b602082019050919050565b600060208201905081810360008301526136ee816136b2565b9050919050565b7f4552433732313a207472616e7366657220746f206e6f6e20455243373231526560008201527f63656976657220696d706c656d656e7465720000000000000000000000000000602082015250565b600061375160328361268b565b915061375c826136f5565b604082019050919050565b6000602082019050818103600083015261378081613744565b9050919050565b7f45524337323155524953746f726167653a2055524920736574206f66206e6f6e60008201527f6578697374656e7420746f6b656e000000000000000000000000000000000000602082015250565b60006137e3602e8361268b565b91506137ee82613787565b604082019050919050565b60006020820190508181036000830152613812816137d6565b9050919050565b600081519050919050565b600082825260208201905092915050565b600061384082613819565b61384a8185613824565b935061385a81856020860161269c565b613863816126cf565b840191505092915050565b600060808201905061388360008301876127d0565b61389060208301866127d0565b61389d6040830185612866565b81810360608301526138af8184613835565b905095945050505050565b6000815190506138c9816125f1565b92915050565b6000602082840312156138e5576138e46125bb565b5b60006138f3848285016138ba565b91505092915050565b7f4552433732313a206d696e7420746f20746865207a65726f2061646472657373600082015250565b600061393260208361268b565b915061393d826138fc565b602082019050919050565b6000602082019050818103600083015261396181613925565b9050919050565b7f4552433732313a20746f6b656e20616c7265616479206d696e74656400000000600082015250565b600061399e601c8361268b565b91506139a982613968565b602082019050919050565b600060208201905081810360008301526139cd81613991565b905091905056fea2646970667358221220b68fc03c520ce6b2d491eda1f823e071c0bc43b51ffb82ba439c1681ad0544bc64736f6c63430008080033",
  "devdoc": {
    "kind": "dev",
    "methods": {
      "approve(address,uint256)": {
        "details": "See {IERC721-approve}."
      },
      "balanceOf(address)": {
        "details": "See {IERC721-balanceOf}."
      },
      "getApproved(uint256)": {
        "details": "See {IERC721-getApproved}."
      },
      "isApprovedForAll(address,address)": {
        "details": "See {IERC721-isApprovedForAll}."
      },
      "name()": {
        "details": "See {IERC721Metadata-name}."
      },
      "owner()": {
        "details": "Returns the address of the current owner."
      },
      "ownerOf(uint256)": {
        "details": "See {IERC721-ownerOf}."
      },
      "renounceOwnership()": {
        "details": "Leaves the contract without owner. It will not be possible to call `onlyOwner` functions anymore. Can only be called by the current owner. NOTE: Renouncing ownership will leave the contract without an owner, thereby removing any functionality that is only available to the owner."
      },
      "safeTransferFrom(address,address,uint256)": {
        "details": "See {IERC721-safeTransferFrom}."
      },
      "safeTransferFrom(address,address,uint256,bytes)": {
        "details": "See {IERC721-safeTransferFrom}."
      },
      "setApprovalForAll(address,bool)": {
        "details": "See {IERC721-setApprovalForAll}."
      },
      "supportsInterface(bytes4)": {
        "details": "See {IERC165-supportsInterface}."
      },
      "symbol()": {
        "details": "See {IERC721Metadata-symbol}."
      },
      "tokenURI(uint256)": {
        "details": "See {IERC721Metadata-tokenURI}."
      },
      "transferFrom(address,address,uint256)": {
        "details": "See {IERC721-transferFrom}."
      },
      "transferOwnership(address)": {
        "details": "Transfers ownership of the contract to a new account (`newOwner`). Can only be called by the current owner."
      }
    },
    "version": 1
  },
  "userdoc": {
    "kind": "user",
    "methods": {},
    "version": 1
  },
  "storageLayout": {
    "storage": [
      {
        "astId": 1296,
        "contract": "contracts/RandomIpfsNft.sol:RandomIpfsNft",
        "label": "_name",
        "offset": 0,
        "slot": "0",
        "type": "t_string_storage"
      },
      {
        "astId": 1298,
        "contract": "contracts/RandomIpfsNft.sol:RandomIpfsNft",
        "label": "_symbol",
        "offset": 0,
        "slot": "1",
        "type": "t_string_storage"
      },
      {
        "astId": 1302,
        "contract": "contracts/RandomIpfsNft.sol:RandomIpfsNft",
        "label": "_owners",
        "offset": 0,
        "slot": "2",
        "type": "t_mapping(t_uint256,t_address)"
      },
      {
        "astId": 1306,
        "contract": "contracts/RandomIpfsNft.sol:RandomIpfsNft",
        "label": "_balances",
        "offset": 0,
        "slot": "3",
        "type": "t_mapping(t_address,t_uint256)"
      },
      {
        "astId": 1310,
        "contract": "contracts/RandomIpfsNft.sol:RandomIpfsNft",
        "label": "_tokenApprovals",
        "offset": 0,
        "slot": "4",
        "type": "t_mapping(t_uint256,t_address)"
      },
      {
        "astId": 1316,
        "contract": "contracts/RandomIpfsNft.sol:RandomIpfsNft",
        "label": "_operatorApprovals",
        "offset": 0,
        "slot": "5",
        "type": "t_mapping(t_address,t_mapping(t_address,t_bool))"
      },
      {
        "astId": 2344,
        "contract": "contracts/RandomIpfsNft.sol:RandomIpfsNft",
        "label": "_tokenURIs",
        "offset": 0,
        "slot": "6",
        "type": "t_mapping(t_uint256,t_string_storage)"
      },
      {
        "astId": 1165,
        "contract": "contracts/RandomIpfsNft.sol:RandomIpfsNft",
        "label": "_owner",
        "offset": 0,
        "slot": "7",
        "type": "t_address"
      },
      {
        "astId": 4366,
        "contract": "contracts/RandomIpfsNft.sol:RandomIpfsNft",
        "label": "s_requestIdToSender",
        "offset": 0,
        "slot": "8",
        "type": "t_mapping(t_uint256,t_address)"
      },
      {
        "astId": 4381,
        "contract": "contracts/RandomIpfsNft.sol:RandomIpfsNft",
        "label": "s_tokenCounter",
        "offset": 0,
        "slot": "9",
        "type": "t_uint256"
      },
      {
        "astId": 4387,
        "contract": "contracts/RandomIpfsNft.sol:RandomIpfsNft",
        "label": "s_tokenUris",
        "offset": 0,
        "slot": "10",
        "type": "t_array(t_string_storage)dyn_storage"
      }
    ],
    "types": {
      "t_address": {
        "encoding": "inplace",
        "label": "address",
        "numberOfBytes": "20"
      },
      "t_array(t_string_storage)dyn_storage": {
        "base": "t_string_storage",
        "encoding": "dynamic_array",
        "label": "string[]",
        "numberOfBytes": "32"
      },
      "t_bool": {
        "encoding": "inplace",
        "label": "bool",
        "numberOfBytes": "1"
      },
      "t_mapping(t_address,t_bool)": {
        "encoding": "mapping",
        "key": "t_address",
        "label": "mapping(address => bool)",
        "numberOfBytes": "32",
        "value": "t_bool"
      },
      "t_mapping(t_address,t_mapping(t_address,t_bool))": {
        "encoding": "mapping",
        "key": "t_address",
        "label": "mapping(address => mapping(address => bool))",
        "numberOfBytes": "32",
        "value": "t_mapping(t_address,t_bool)"
      },
      "t_mapping(t_address,t_uint256)": {
        "encoding": "mapping",
        "key": "t_address",
        "label": "mapping(address => uint256)",
        "numberOfBytes": "32",
        "value": "t_uint256"
      },
      "t_mapping(t_uint256,t_address)": {
        "encoding": "mapping",
        "key": "t_uint256",
        "label": "mapping(uint256 => address)",
        "numberOfBytes": "32",
        "value": "t_address"
      },
      "t_mapping(t_uint256,t_string_storage)": {
        "encoding": "mapping",
        "key": "t_uint256",
        "label": "mapping(uint256 => string)",
        "numberOfBytes": "32",
        "value": "t_string_storage"
      },
      "t_string_storage": {
        "encoding": "bytes",
        "label": "string",
        "numberOfBytes": "32"
      },
      "t_uint256": {
        "encoding": "inplace",
        "label": "uint256",
        "numberOfBytes": "32"
      }
    }
  }
}